{
  "_format": "hh-sol-artifact-1",
  "contractName": "Ballot",
  "sourceName": "contracts/Ballot.sol",
  "abi": [
    {
      "inputs": [
        {
          "internalType": "bytes32[]",
          "name": "proposalNames",
          "type": "bytes32[]"
        }
      ],
      "stateMutability": "nonpayable",
      "type": "constructor"
    },
    {
      "inputs": [],
      "name": "chairperson",
      "outputs": [
        {
          "internalType": "address",
          "name": "",
          "type": "address"
        }
      ],
      "stateMutability": "view",
      "type": "function"
    },
    {
      "inputs": [
        {
          "internalType": "address",
          "name": "to",
          "type": "address"
        }
      ],
      "name": "delegate",
      "outputs": [],
      "stateMutability": "nonpayable",
      "type": "function"
    },
    {
      "inputs": [
        {
          "internalType": "address",
          "name": "voter",
          "type": "address"
        }
      ],
      "name": "giveRightToVote",
      "outputs": [],
      "stateMutability": "nonpayable",
      "type": "function"
    },
    {
      "inputs": [
        {
          "internalType": "uint256",
          "name": "",
          "type": "uint256"
        }
      ],
      "name": "proposals",
      "outputs": [
        {
          "internalType": "bytes32",
          "name": "name",
          "type": "bytes32"
        },
        {
          "internalType": "uint256",
          "name": "voteCount",
          "type": "uint256"
        }
      ],
      "stateMutability": "view",
      "type": "function"
    },
    {
      "inputs": [
        {
          "internalType": "uint256",
          "name": "proposal",
          "type": "uint256"
        }
      ],
      "name": "vote",
      "outputs": [],
      "stateMutability": "nonpayable",
      "type": "function"
    },
    {
      "inputs": [
        {
          "internalType": "address",
          "name": "",
          "type": "address"
        }
      ],
      "name": "voters",
      "outputs": [
        {
          "internalType": "uint256",
          "name": "weight",
          "type": "uint256"
        },
        {
          "internalType": "bool",
          "name": "voted",
          "type": "bool"
        },
        {
          "internalType": "address",
          "name": "delegate",
          "type": "address"
        },
        {
          "internalType": "uint256",
          "name": "vote",
          "type": "uint256"
        }
      ],
      "stateMutability": "view",
      "type": "function"
    },
    {
      "inputs": [],
      "name": "winnerName",
      "outputs": [
        {
          "internalType": "bytes32",
          "name": "winnerName_",
          "type": "bytes32"
        }
      ],
      "stateMutability": "view",
      "type": "function"
    },
    {
      "inputs": [],
      "name": "winningProposal",
      "outputs": [
        {
          "internalType": "uint256",
          "name": "winningProposal_",
          "type": "uint256"
        }
      ],
      "stateMutability": "view",
      "type": "function"
    }
  ],
  "bytecode": "0x60806040523480156200001157600080fd5b50604051620016373803806200163783398181016040528101906200003791906200033c565b33600260006101000a81548173ffffffffffffffffffffffffffffffffffffffff021916908373ffffffffffffffffffffffffffffffffffffffff1602179055506001600080600260009054906101000a900473ffffffffffffffffffffffffffffffffffffffff1673ffffffffffffffffffffffffffffffffffffffff1673ffffffffffffffffffffffffffffffffffffffff1681526020019081526020016000206000018190555060005b81518110156200017057600160405180604001604052808484815181106200011157620001106200038d565b5b6020026020010151815260200160008152509080600181540180825580915050600190039060005260206000209060020201600090919091909150600082015181600001556020820151816001015550508080600101915050620000e4565b5050620003bc565b6000604051905090565b600080fd5b600080fd5b600080fd5b6000601f19601f8301169050919050565b7f4e487b7100000000000000000000000000000000000000000000000000000000600052604160045260246000fd5b620001dc8262000191565b810181811067ffffffffffffffff82111715620001fe57620001fd620001a2565b5b80604052505050565b60006200021362000178565b9050620002218282620001d1565b919050565b600067ffffffffffffffff821115620002445762000243620001a2565b5b602082029050602081019050919050565b600080fd5b6000819050919050565b6200026f816200025a565b81146200027b57600080fd5b50565b6000815190506200028f8162000264565b92915050565b6000620002ac620002a68462000226565b62000207565b90508083825260208201905060208402830185811115620002d257620002d162000255565b5b835b81811015620002ff5780620002ea88826200027e565b845260208401935050602081019050620002d4565b5050509392505050565b600082601f8301126200032157620003206200018c565b5b81516200033384826020860162000295565b91505092915050565b60006020828403121562000355576200035462000182565b5b600082015167ffffffffffffffff81111562000376576200037562000187565b5b620003848482850162000309565b91505092915050565b7f4e487b7100000000000000000000000000000000000000000000000000000000600052603260045260246000fd5b61126b80620003cc6000396000f3fe608060405234801561001057600080fd5b50600436106100885760003560e01c8063609ff1bd1161005b578063609ff1bd146101145780639e7b8d6114610132578063a3ec138d1461014e578063e2ba53f01461018157610088565b80630121b93f1461008d578063013cf08b146100a95780632e4176cf146100da5780635c19a95c146100f8575b600080fd5b6100a760048036038101906100a29190610b81565b61019f565b005b6100c360048036038101906100be9190610b81565b61029d565b6040516100d1929190610bd6565b60405180910390f35b6100e26102d1565b6040516100ef9190610c40565b60405180910390f35b610112600480360381019061010d9190610c87565b6102f7565b005b61011c6106e6565b6040516101299190610cb4565b60405180910390f35b61014c60048036038101906101479190610c87565b610768565b005b61016860048036038101906101639190610c87565b61095f565b6040516101789493929190610cea565b60405180910390f35b6101896109bc565b6040516101969190610d2f565b60405180910390f35b60008060003373ffffffffffffffffffffffffffffffffffffffff1673ffffffffffffffffffffffffffffffffffffffff16815260200190815260200160002090508060010160009054906101000a900460ff1615610233576040517f08c379a000000000000000000000000000000000000000000000000000000000815260040161022a90610da7565b60405180910390fd5b60018160010160006101000a81548160ff02191690831515021790555081816002018190555080600001546001838154811061027257610271610dc7565b5b906000526020600020906002020160010160008282546102929190610e25565b925050819055505050565b600181815481106102ad57600080fd5b90600052602060002090600202016000915090508060000154908060010154905082565b600260009054906101000a900473ffffffffffffffffffffffffffffffffffffffff1681565b60008060003373ffffffffffffffffffffffffffffffffffffffff1673ffffffffffffffffffffffffffffffffffffffff16815260200190815260200160002090506000816000015403610380576040517f08c379a000000000000000000000000000000000000000000000000000000000815260040161037790610ea5565b60405180910390fd5b8060010160009054906101000a900460ff16156103d2576040517f08c379a00000000000000000000000000000000000000000000000000000000081526004016103c990610f11565b60405180910390fd5b3373ffffffffffffffffffffffffffffffffffffffff168273ffffffffffffffffffffffffffffffffffffffff1603610440576040517f08c379a000000000000000000000000000000000000000000000000000000000815260040161043790610f7d565b60405180910390fd5b5b600073ffffffffffffffffffffffffffffffffffffffff166000808473ffffffffffffffffffffffffffffffffffffffff1673ffffffffffffffffffffffffffffffffffffffff16815260200190815260200160002060010160019054906101000a900473ffffffffffffffffffffffffffffffffffffffff1673ffffffffffffffffffffffffffffffffffffffff16146105ad576000808373ffffffffffffffffffffffffffffffffffffffff1673ffffffffffffffffffffffffffffffffffffffff16815260200190815260200160002060010160019054906101000a900473ffffffffffffffffffffffffffffffffffffffff1691503373ffffffffffffffffffffffffffffffffffffffff168273ffffffffffffffffffffffffffffffffffffffff16036105a8576040517f08c379a000000000000000000000000000000000000000000000000000000000815260040161059f90610fe9565b60405180910390fd5b610441565b60008060008473ffffffffffffffffffffffffffffffffffffffff1673ffffffffffffffffffffffffffffffffffffffff168152602001908152602001600020905060018160000154101561060157600080fd5b60018260010160006101000a81548160ff021916908315150217905550828260010160016101000a81548173ffffffffffffffffffffffffffffffffffffffff021916908373ffffffffffffffffffffffffffffffffffffffff1602179055508060010160009054906101000a900460ff16156106c1578160000154600182600201548154811061069557610694610dc7565b5b906000526020600020906002020160010160008282546106b59190610e25565b925050819055506106e1565b81600001548160000160008282546106d99190610e25565b925050819055505b505050565b6000806000905060005b60018054905081101561076357816001828154811061071257610711610dc7565b5b9060005260206000209060020201600101541115610756576001818154811061073e5761073d610dc7565b5b90600052602060002090600202016001015491508092505b80806001019150506106f0565b505090565b600260009054906101000a900473ffffffffffffffffffffffffffffffffffffffff1673ffffffffffffffffffffffffffffffffffffffff163373ffffffffffffffffffffffffffffffffffffffff16146107f8576040517f08c379a00000000000000000000000000000000000000000000000000000000081526004016107ef9061107b565b60405180910390fd5b6000808273ffffffffffffffffffffffffffffffffffffffff1673ffffffffffffffffffffffffffffffffffffffff16815260200190815260200160002060010160009054906101000a900460ff1615610887576040517f08c379a000000000000000000000000000000000000000000000000000000000815260040161087e906110e7565b60405180910390fd5b60008060008373ffffffffffffffffffffffffffffffffffffffff1673ffffffffffffffffffffffffffffffffffffffff16815260200190815260200160002060000154146108d557600080fd5b6109156040518060400160405280601f81526020017f676976655269676874546f566f7465696e67203a2025732067697665202573008152503383610a57565b60016000808373ffffffffffffffffffffffffffffffffffffffff1673ffffffffffffffffffffffffffffffffffffffff1681526020019081526020016000206000018190555050565b60006020528060005260406000206000915090508060000154908060010160009054906101000a900460ff16908060010160019054906101000a900473ffffffffffffffffffffffffffffffffffffffff16908060020154905084565b600060013073ffffffffffffffffffffffffffffffffffffffff1663609ff1bd6040518163ffffffff1660e01b8152600401602060405180830381865afa158015610a0b573d6000803e3d6000fd5b505050506040513d601f19601f82011682018060405250810190610a2f919061111c565b81548110610a4057610a3f610dc7565b5b906000526020600020906002020160000154905090565b610af1838383604051602401610a6f939291906111c8565b6040516020818303038152906040527ffcec75e0000000000000000000000000000000000000000000000000000000007bffffffffffffffffffffffffffffffffffffffffffffffffffffffff19166020820180517bffffffffffffffffffffffffffffffffffffffffffffffffffffffff8381831617835250505050610af6565b505050565b610b0d81610b05610b10610b31565b63ffffffff16565b50565b60006a636f6e736f6c652e6c6f679050600080835160208501845afa505050565b610b3c819050919050565b610b44611206565b565b600080fd5b6000819050919050565b610b5e81610b4b565b8114610b6957600080fd5b50565b600081359050610b7b81610b55565b92915050565b600060208284031215610b9757610b96610b46565b5b6000610ba584828501610b6c565b91505092915050565b6000819050919050565b610bc181610bae565b82525050565b610bd081610b4b565b82525050565b6000604082019050610beb6000830185610bb8565b610bf86020830184610bc7565b9392505050565b600073ffffffffffffffffffffffffffffffffffffffff82169050919050565b6000610c2a82610bff565b9050919050565b610c3a81610c1f565b82525050565b6000602082019050610c556000830184610c31565b92915050565b610c6481610c1f565b8114610c6f57600080fd5b50565b600081359050610c8181610c5b565b92915050565b600060208284031215610c9d57610c9c610b46565b5b6000610cab84828501610c72565b91505092915050565b6000602082019050610cc96000830184610bc7565b92915050565b60008115159050919050565b610ce481610ccf565b82525050565b6000608082019050610cff6000830187610bc7565b610d0c6020830186610cdb565b610d196040830185610c31565b610d266060830184610bc7565b95945050505050565b6000602082019050610d446000830184610bb8565b92915050565b600082825260208201905092915050565b7f416c726561647920766f7465642e000000000000000000000000000000000000600082015250565b6000610d91600e83610d4a565b9150610d9c82610d5b565b602082019050919050565b60006020820190508181036000830152610dc081610d84565b9050919050565b7f4e487b7100000000000000000000000000000000000000000000000000000000600052603260045260246000fd5b7f4e487b7100000000000000000000000000000000000000000000000000000000600052601160045260246000fd5b6000610e3082610b4b565b9150610e3b83610b4b565b9250828201905080821115610e5357610e52610df6565b5b92915050565b7f596f752068617665206e6f20726967687420746f20766f746500000000000000600082015250565b6000610e8f601983610d4a565b9150610e9a82610e59565b602082019050919050565b60006020820190508181036000830152610ebe81610e82565b9050919050565b7f596f7520616c726561647920766f7465642e0000000000000000000000000000600082015250565b6000610efb601283610d4a565b9150610f0682610ec5565b602082019050919050565b60006020820190508181036000830152610f2a81610eee565b9050919050565b7f53656c662d64656c656761746574696f6e2069736e6f7420616c6c6f7765642e600082015250565b6000610f67602083610d4a565b9150610f7282610f31565b602082019050919050565b60006020820190508181036000830152610f9681610f5a565b9050919050565b7f466f756e64206c6f6f7020696e2064656c65676174696f6e2e00000000000000600082015250565b6000610fd3601983610d4a565b9150610fde82610f9d565b602082019050919050565b6000602082019050818103600083015261100281610fc6565b9050919050565b7f4f6e6c79206368616972706572736f6e2063616e20676976652072696768742060008201527f746f20766f746500000000000000000000000000000000000000000000000000602082015250565b6000611065602783610d4a565b915061107082611009565b604082019050919050565b6000602082019050818103600083015261109481611058565b9050919050565b7f54686520766f74657220616c726561647920766f746564000000000000000000600082015250565b60006110d1601783610d4a565b91506110dc8261109b565b602082019050919050565b60006020820190508181036000830152611100816110c4565b9050919050565b60008151905061111681610b55565b92915050565b60006020828403121561113257611131610b46565b5b600061114084828501611107565b91505092915050565b600081519050919050565b60005b83811015611172578082015181840152602081019050611157565b60008484015250505050565b6000601f19601f8301169050919050565b600061119a82611149565b6111a48185610d4a565b93506111b4818560208601611154565b6111bd8161117e565b840191505092915050565b600060608201905081810360008301526111e2818661118f565b90506111f16020830185610c31565b6111fe6040830184610c31565b949350505050565b7f4e487b7100000000000000000000000000000000000000000000000000000000600052605160045260246000fdfea264697066735822122098c0e1d81af45b059d2abc021d3e64c8ee8adfae8a57317bdb1534d6a379765264736f6c63430008180033",
  "linkReferences": {},
  "deployedLinkReferences": {}
}